:020000040800F2
:10000000A8170020FD290008890400088B040008B7
:100010008F04000893040008970400080000000003
:100020000000000000000000000000009B04000829
:100030009D040008000000009F040008A1040008BF
:10004000172A0008172A0008172A0008172A00088C
:10005000172A0008172A0008172A0008172A00087C
:10006000172A0008172A0008172A0008172A00086C
:10007000172A0008172A0008172A0008172A00085C
:10008000172A0008172A0008172A0008172A00084C
:10009000172A0008172A0008172A0008172A00083C
:1000A000172A0008172A0008172A0008172A00082C
:1000B000172A0008172A0008172A0008172A00081C
:1000C000172A0008172A0008172A0008172A00080C
:1000D000172A000871290008172A0008172A0008A3
:1000E000172A0008172A0008172A0008172A0008EC
:1000F000172A0008172A0008172A0008172A0008DC
:10010000172A0008172A0008172A0008172A0008CB
:10011000172A0008172A0008172A0008172A0008BB
:10012000172A0008172A0008172A0008172A0008AB
:1001300000F002F800F03AF80AA090E8000C8244BF
:100140008344AAF10107DA4501D100F02FF8AFF29C
:10015000090EBAE80F0013F0010F18BFFB1A43F0A5
:1001600001031847205C0000405C0000103A24BFE7
:1001700078C878C1FAD8520724BF30C830C144BF0C
:1001800004680C607047000000230024002500264E
:10019000103A28BF78C1FBD8520728BF30C148BFEA
:1001A0000B6070471FB51FBD10B510BD03F0D6FB27
:1001B0001146FFF7F7FF00F0D1F803F0F4FB03B4AA
:1001C000FFF7F2FF03BC02F075FB00001CB54FF611
:1001D000FF7000F087FB1F209D4908809DA0102123
:1001E000CDE900109C490988183988B21023C8222B
:1001F000002100F0C3FF4FF47840954908801CBDF2
:100200001CB54FF6FF70954908804FF4784090492F
:10021000088000221146104600F006FE012200214F
:10022000282000F001FE02220021502000F0FCFDF9
:1002300000222321104600F0BFFD012223211420BB
:1002400000F0BAFD02222321282000F0B5FD032290
:1002500023213C2000F0B0FD04222321502000F097
:10026000ABFD05222321642000F0A6FD7CA0102117
:100270000B46C822CDE900103721002000F07EFF98
:100280001CBD70B500254B2410E0002506E021467A
:10029000284600F0A6FF05F1280085B26E480088C8
:1002A0002738A842F3DC04F1280084B26A48408869
:1002B0002738A042E9DC70BD10B56E4800780528EB
:1002C0001FD2DFE800F0030C10151A004FF6FF7084
:1002D00000F008FBFFF794FFFFF7D3FF11E00020C9
:1002E00000F000FB0DE04FF4784000F0FBFA08E06E
:1002F0004FF4FC6000F0F6FA03E01F2000F0F2FA81
:1003000000BF00BF10BD10B50446012C09D14FF647
:10031000FF7000F0E7FA01F0B1FD01F043FCFFF7D8
:1003200055FF022C0CD153480078401C51490870ED
:1003300008460078052801D100200870FFF7BCFFAF
:1003400010BD10B5044601204B490860204602F05C
:100350004AFA00204949C1F8B00110BD0024002527
:1003600002F004FA02F06CFA4FF4165002F0B1FAFF
:1003700000F088F901F092F800F0BAF900F064FF9B
:1003800000F0C6FA3E49086880474FF4784030498B
:100390000880FFF735FFFFF774FF58E0002000F0FA
:1003A000C1F9054636484168002088473448007D39
:1003B00000F08000002838D02E480078012803D0B3
:1003C0004FF6FF7000F08EFA2DE0002000F0AAF941
:1003D00005462B484168002088472948007D00F0E9
:1003E000800000B32648008A1B49098888421ADA2F
:1003F0002348408A18494988884214DA2048018AEB
:10040000154800881838814206DD1D48408A1028AA
:1004100002DAFFF7DBFE06E0194A518A108A4FF430
:10042000784201F029FB002DCFD02846FFF76BFF63
:10043000601C84B24FF6E850844208D10024114871
:10044000006808B9012000E000200E490860A5E717
:100450001A00002052535400700000201C0000209D
:10046000322E342054465420535049203234302AFE
:100470003332300000000020B0012242000022424E
:100480002000002094812142704700BFFEE700BF9A
:10049000FEE700BFFEE700BFFEE77047704770470A
:1004A000704700000CB50020019000906C48006877
:1004B00040F480306A49086000BF6948006800F471
:1004C000003000900198401C0190009818B90198E4
:1004D000B0F5A06FF1D16248006800F4003010B1AF
:1004E0000120009001E0002000900098012843D1F5
:1004F0005C48006840F010005A49086008460068EF
:1005000020F0030008600846006840F00200086020
:100510005348406852494860084640684860084669
:10052000406840F4806048600846406820F47C10D1
:1005300048600846406840F4E81048600846006893
:1005400040F08070086000BF4548006800F000700F
:100550000028F9D04248406820F003004049486034
:100560000846406840F00200486000BF3C484068D0
:1005700000F00C000828F9D10CBD10B5FFF792FF70
:1005800010BD10B53648006840F0010034490860DD
:1005900008464068344908403149486008460068C8
:1005A000324908402E4908600846006820F480203F
:1005B00008600846406820F4FE0048604FF41F00C1
:1005C0008860FFF7DAFF4FF000602949086010BD2E
:1005D00010B5002100200022214B5B6803F00C01C4
:1005E00021B1042906D0082928D107E0214B224C4B
:1005F000236027E01F4B204C236023E0184B5B68EF
:1006000003F47010164B5B6803F48032022303EB93
:10061000904022B9194B4343174C23600DE0104B17
:100620005B6803F4003323B1144B4343124C236043
:1006300003E0104B4343104C236003E00D4B0E4C82
:10064000236000BF00BF064B5B68C3F303130C4C71
:10065000E15C094B1B68CB40074C236010BD0000D8
:1006600000100240002002400000FFF8FFFFF6FEED
:1006700008ED00E000127A000400002000093D00AF
:100680000800002008B50121582002F0F3FC2020CA
:10069000ADF8000010208DF8030003208DF8020053
:1006A0006946104802F02AFA20210E4802F0D3FAD7
:1006B0002020ADF8000069460B4802F01FFA202107
:1006C000094802F0C8FA4FF48050ADF80000014626
:1006D000064802F0C2FA4FF48051044802F0BBFA17
:1006E00008BD0000000C014000180140001001404E
:1006F00008B50121442002F0BDFC1C20ADF800002B
:1007000048208DF803006946354802F0F7F90120CA
:10071000ADF8000028208DF803006946314802F04A
:10072000EDF908BD10B5044614B101202E4908703A
:100730002D480078002837D01021294802F071FA9E
:1007400078B10821264802F06CFA50B104212448FF
:1007500002F067FA28B10121224802F062FA01286A
:1007600022D10F2002F03FF800201F49087010210D
:100770001B4802F056FA08B9012010BD082118489C
:1007800002F04FFA08B90220F7E70421144802F0FA
:1007900048FA08B90320F0E70121124802F041FAB3
:1007A00001281BD10420E8E710210D4802F039FA96
:1007B000012813D108210A4802F033FA01280DD18B
:1007C0000421074802F02DFA012807D1012105482C
:1007D00002F027FA10B90120034908700020CCE785
:1007E00000180140000801401800002010B5044620
:1007F0001021FA4802F031FA1021F94802F02DFADE
:10080000E1B2F84800F00EFE1021F44802F023FA9D
:1008100010BD10B504461021F04802F01EFA102158
:10082000EF4802F018FA2112EE4800F0FBFDE1B2A9
:10083000EC4800F0F7FD1021E84802F00CFA10BD7A
:1008400010B504461021E54802F007FA1021E448EB
:1008500002F001FA2146E34800F0E4FD1021DF48F0
:1008600002F0F9F910BD70B505460C462846FFF7B1
:10087000BDFF2046FFF7CDFF70BD10B5DA4988797E
:10088000FFF7B4FF10BD00BF0100A0F10102D0B21C
:10089000FAD170477047704770B504460D46D2498B
:1008A000C879FFF7A3FF2012FFF7CAFFE0B2FFF7F6
:1008B000C7FFCD49087AFFF799FF2812FFF7C0FF5D
:1008C000E8B2FFF7BDFF70BD70B504460D4629467E
:1008D0002046FFF7E1FFFFF7D0FFC4480088FFF78D
:1008E00098FF70BD70B506460024BF480588408853
:1008F000454300210846FFF7CFFFFFF7BEFF00BFCB
:1009000003E03046FFF785FF641CAC42F9D370BDAD
:1009100010B50020B6490860322001F064FF0120C4
:10092000B449C1F88401322001F05DFF0121B248D1
:1009300002F093F9142001F056FF0121AE4802F0B5
:100940008AF9142001F04FFFF020A74908804FF4E6
:10095000A07048802C2088712A20C8712B20087232
:10096000CB20FFF743FF3920FFF76AFF2C20FFF76A
:1009700067FF0020FFF764FF3420FFF761FF0220CC
:10098000FFF75EFFCF20FFF731FF0020FFF758FF92
:10099000C120FFF755FF3020FFF752FFE820FFF797
:1009A00025FF8520FFF74CFF0020FFF749FF782047
:1009B000FFF746FFEA20FFF719FF0020FFF740FF8F
:1009C0000020FFF73DFFED20FFF710FF6420FFF749
:1009D00037FF0320FFF734FF1220FFF731FF81209C
:1009E000FFF72EFFF720FFF701FF2020FFF728FF7A
:1009F000C020FFF7FBFE2320FFF722FFC120FFF7F7
:100A0000F5FE1020FFF71CFFC520FFF7EFFE3E208C
:100A1000FFF716FF2820FFF713FFC720FFF7E6FEBA
:100A20008620FFF70DFF3620FFF7E0FE4820FFF796
:100A300007FF3A20FFF7DAFE5520FFF701FFB1204C
:100A4000FFF7D4FE0020FFF7FBFE1820FFF7F8FEAB
:100A5000B620FFF7CBFE0820FFF7F2FE8220FFF75B
:100A6000EFFE2720FFF7ECFEF220FFF7BFFE00208D
:100A7000FFF7E6FE2620FFF7B9FE0120FFF7E0FEB4
:100A8000E020FFF7B3FE0F20FFF7DAFE3120FFF77B
:100A9000D7FE2B20FFF7D4FE0C20FFF7D1FE0E204F
:100AA000FFF7CEFE0820FFF7CBFE4E20FFF7C8FE73
:100AB000F120FFF7C5FE3720FFF7C2FE0720FFF742
:100AC000BFFE1020FFF7BCFE0320FFF7B9FE0E208B
:100AD000FFF7B6FE0920FFF7B3FE0020FFF7B0FED8
:100AE000E120FFF783FE0020FFF7AAFE0E20FFF7AC
:100AF000A7FE1420FFF7A4FE0320FFF7A1FE11209C
:100B0000FFF79EFE0720FFF79BFE3120FFF798FEC0
:100B1000C120FFF795FE4820FFF792FE0820FFF75F
:100B20008FFE0F20FFF78CFE0C20FFF789FE31208F
:100B3000FFF786FE3620FFF783FE0F20FFF780FECB
:100B40001120FFF753FE782001F04DFE2920FFF71A
:100B50004DFE2C20FFF74AFE4FF6FF70FFF7C2FE56
:100B600010BD2DE9F05F05460E4617469846DDF8A4
:100B700028A04FF0000B781B401C1FFA80FB344666
:100B800013E021462846FFF787FEFFF776FE4FF079
:100B9000000906E05046FFF73CFE09F101001FFA8C
:100BA00080F9D945F6DB601C84B24445E9DDBDE837
:100BB000F09F2DE9F84F07460D4690469946DDF81F
:100BC00028B0A8EB0700401C80B20090A9EB0500FC
:100BD000401C1FFA80FA002426E0000000080140B3
:100BE0000010014000300140700000201A00002079
:100BF0008481214200802142000C0140281981B2E9
:100C00003846FFF749FEFFF738FE002607E004FBF1
:100C10000A603BF81000F7490880701C86B2009803
:100C20008642F4DB601C84B25445E7DBBDE8F88FF4
:100C30002DE9FF4F85B081468A460020049003903D
:100C40000798A0EB09050898A0EB0A06CDF80890D4
:100C5000CDF804A0002D01DD012705E00DB9002726
:100C600002E04FF0FF376D42002E02DD4FF0010829
:100C700006E016B94FF0000802E04FF0FF38764268
:100C8000B54201DD2C4600E034464FF0000B21E078
:100C9000019A91B2029A90B2FFF716FE0498284486
:100CA00004900398304403900498A04205DD049812
:100CB000001B04900298384402900398A04205DD7E
:100CC0000398001B03900198404401900BF1010030
:100CD0001FFA80FB601C8345DADD09B0BDE8F08FA8
:100CE0002DE9F04104460D4616461F462B46324676
:100CF00029462046FFF79CFF3B46224629462046D0
:100D0000FFF796FF3B46324639462046FFF790FFF5
:100D10003B46324629463046FFF78AFFBDE8F08160
:100D20002DE9F04706460F4690460024454603202D
:100D3000A0EB48093CE07A1B91B2321990B2FFF760
:100D4000C3FD3A1B91B2721990B2FFF7BDFD3A197B
:100D500091B2721990B2FFF7B7FD7A1991B23219B8
:100D600090B2FFF7B1FD7A1991B2321B90B2FFF742
:100D7000ABFD3A1991B2721B90B2FFF7A5FD7A1B39
:100D800091B2321B90B2FFF79FFD3A1B91B2721BDA
:100D900090B2FFF799FD641CB9F1000F03DAA000CF
:100DA000801D814404E0601B80000A3081446D1E78
:100DB000AC42C0DDBDE8F0872DE9F04780468946AA
:100DC00014468D4F07EB4417002629E009EB060275
:100DD00091B21FFA88F0FFF75FFDFFF74EFD4FF06D
:100DE000000A18E000250FE038780121A9400840EA
:100DF00020B182480088FFF70CFD03E0804800889E
:100E0000FFF707FD681CC5B2082DEDDB7F1C0AF15A
:100E1000010000F0FF0ABAF1020FE3DB701CC6B25A
:100E2000102ED3DBBDE8F0872DE9F04780468946D8
:100E30001446744F07EBC417002629E009EB06029D
:100E400091B21FFA88F0FFF727FDFFF716FD4FF06C
:100E5000000A18E000250FE038780121A940084079
:100E600020B166480088FFF7D4FC03E0644800889E
:100E7000FFF7CFFC681CC5B2082DEDDB7F1C0AF123
:100E8000010000F0FF0ABAF1040FE3DB701CC6B2E8
:100E9000202ED3DBBDE8F0872DE9F84F81460D46C3
:100EA00017461E4600955548B0F80080A7F120006F
:100EB000C7B20A98002850D100244BE00C2E07D16D
:100EC00007EB4700504901EB800010F804A004E054
:100ED0004E4800EB071010F804A04FF0000B33E071
:100EE0000AF0800018B14548A0F8008003E04448AB
:100EF00000884249088029464846FFF7E5FC4FEA4A
:100F00004A604FEA106A681C85B241484088A8428E
:100F100004DC3A48A0F80080BDE8F88F0098281A51
:100F2000B0420DD1009D09F101001FFA80F9384847
:100F30000088484503DC3148A0F80080ECE706E073
:100F40000BF1010000F0FF0BBBF1080FC8DB00BF85
:100F5000601CC4B2B442B1DB46E0002442E00C2E77
:100F600007D107EB4700284901EB800010F804A0E7
:100F700004E0264800EB071010F804A04FF0000B27
:100F80002AE00AF0800018B129464846FFF79CFC89
:100F90004FEA4A604FEA106A681C85B21C484088D4
:100FA000A84203DC1548A0F80080B5E70098281A8D
:100FB000B0420DD1009D09F101001FFA80F91448DB
:100FC0000088484503DC0D48A0F80080A4E706E04F
:100FD0000BF1010000F0FF0BBBF1080FD1DB00BFEC
:100FE000601CC4B2B442BADB0448A0F8008000BF61
:100FF00092E7000000000860624500081A00002027
:101000001C000020E2430008A25200081657000806
:101010007000002010B50246012000E050430B0094
:10102000A1F10104E1B2F9D110BD2DE9FF4F81B06A
:10103000074691461E460E9D4FF0000A002439E0F7
:10104000301B401EC1B20A20FFF7E4FFB9FBF0F0ED
:101050000A21B0FBF1F201FB1208BAF1000F16D120
:10106000701EA04213DDB8F1000F0ED10020AB4678
:1010700005EBDB71491001FB0471009088B22B462F
:1010800020220299FFF708FF12E04FF0010A00202A
:10109000AB4605EBDB71491001FB0471009088B28F
:1010A00008F13001CAB22B460299FFF7F5FE00BFE6
:1010B000601CC4B2B442C3DB05B0BDE8F08F2DE9BB
:1010C000FF4F83B0064692461F46DDE910480020D8
:1010D000029000254DE0781B401EC1B20A20FFF7A8
:1010E00099FFBAFBF0F00A21B0FBF1F201FB120903
:1010F000029850BB781EA84227DDB9F1000F22D11B
:1011000008F0800078B108F00100A34604EBDB7121
:10111000491001FB0561009088B2234630220499F2
:10112000FFF7BAFE0EE008F00100A34604EBDB7106
:10113000491001FB0561009088B2234620220499E2
:10114000FFF7AAFE13E00120029008F00100A34679
:1011500004EBDB71491001FB0561009088B209F1D5
:101160003001CAB223460499FFF796FE00BF681CFF
:10117000C5B2BD42AFDB07B0BDE8F08F2DE9F84F37
:1011800004460D4690469946DDE90A6704F0FF0AD9
:1011900008EB04001FFA80F809EB05001FFA80F93C
:1011A00016E0444502DB5446A81985B24D4500DBE4
:1011B00014E0012000903A78334629462046FFF794
:1011C0006BFE304606EBD07104EB61018CB27F1CE4
:1011D00038787E2802DC38782028E2DA00BFBDE8C3
:1011E000F88F2DE9F04781460F460024002524E0C2
:1011F000781981B24846FFF74FFBFFF73EFB4FF0EF
:10120000000815E0012000EB44000E490E5C4FF68B
:10121000FF7000EA0626084610F814000643304620
:10122000FFF7F7FA601C84B208F101001FFA80F89A
:10123000B8F1280FE6DB681C85B2282DD8DBBDE8A5
:10124000F08700002246000800B587B00121042085
:1012500001F010FF0121080301F00CFFA020ADF800
:10126000180018208DF81B0003208DF81A0006A91D
:10127000754801F043FC1020ADF8180003208DF8EC
:101280001A0010208DF81B0006A96F4801F036FCEB
:1012900010216D4801F0E1FC1020ADF8180003208A
:1012A0008DF81A0010208DF81B0006A9674801F080
:1012B00025FC1021654801F0D0FC0120ADF8180094
:1012C00003208DF81A0010208DF81B0006A9604835
:1012D00001F014FC01215E4801F0BFFC0020ADF8D4
:1012E00004004FF48270ADF806000020ADF808004D
:1012F0000220ADF80A000120ADF80C004002ADF864
:101300000E000020ADF81000ADF812000720ADF877
:10131000140001A94F4801F037FF01214D4801F0A9
:10132000D8FF07B000BD70B50546002405E0601C7D
:10133000C4B2C82C01DD002070BD0221464802F075
:101340004CF80028F3D02946434801F0F3FF00246D
:1013500005E0601CC4B2C82C01DD0020ECE70121CF
:101360003D4802F03AF80028F3D03B4801F0E4FF92
:10137000C0B2E1E700B587B00121082001F07AFE94
:101380000121880301F083FE4FF46040ADF818009E
:1013900018208DF81B0003208DF81A0006A92C4890
:1013A00001F0ACFB4FF46041294801F054FC0020EF
:1013B000ADF804004FF48270ADF806000020ADF8DF
:1013C00008000220ADF80A000120ADF80C00400230
:1013D000ADF80E001820ADF810000020ADF8120096
:1013E0000720ADF8140001A91B4801F0CDFE012132
:1013F000194801F06EFFFF20FFF795FF07B000BD11
:1014000010B50446144800884FF6C77108401249C9
:101410000880084600882043088001210E4801F01A
:1014200058FF10BD024600BF108900F002000028DE
:10143000FAD0918100BF108900F001000028FAD095
:101440009089C0B2704700000008014000100140C0
:10145000000C0140003001400038004010B500246D
:101460000020D84908609020FFF75DFF0020FFF7BB
:101470005AFF0020FFF757FF0020FFF754FFFF201F
:10148000FFF751FF44EA0024FF20FFF74CFF04431D
:101490000120CD49C1F8B001204610BD08B5012199
:1014A0004FF4947001F0E6FD4FF48050ADF8000069
:1014B00010208DF8030003208DF802006946C34810
:1014C00001F01CFB4FF48051C04801F0C4FB042024
:1014D000ADF800006946BE4801F010FB0421BC488D
:1014E00001F0B9FB8020ADF800006946B94801F071
:1014F00005FB8021B74801F0AEFBFFF73BFF002062
:10150000FFF77EFFFFF7AAFFB349088008BD10B5BB
:1015100000240020AB4908600520FFF704FFFF20EE
:10152000FFF701FF04460120A749C1F8B00120469A
:1015300010BD10B504460020A24908600120FFF745
:10154000F2FE2046FFF7EFFE01209F49C1F8B001EF
:1015500010BD10B500209B4908600620FFF7E3FE90
:1015600001209949C1F8B00110BD10B5002095497E
:1015700008600420FFF7D7FE01209349C1F8B001AD
:1015800010BD2DE9F04106460C46174600208D4956
:1015900008600320FFF7C7FEC4F30740FFF7C3FE50
:1015A000C4F30720FFF7BFFEE0B2FFF7BCFE002543
:1015B00005E0FF20FFF7B7FE7055681C85B2BD42FD
:1015C000F7DB01207F490860BDE8F08110B500BF5E
:1015D000FFF79DFF00F001000028F9D110BD2DE9B3
:1015E000F04106460C461746FFF7B3FF0020754949
:1015F00008600220FFF797FEC4F30740FFF793FE51
:10160000C4F30720FFF78FFEE0B2FFF78CFE002542
:1016100004E0705DFFF787FE681C85B2BD42F8DB11
:10162000012068490860FFF7D1FFBDE8F0812DE98E
:10163000F04107460E461446F0B2C0F58075AC4244
:1016400000DC254612E02A4631463846FFF7C7FF40
:10165000AC4200D10BE02F442E44601B84B2B4F5A1
:10166000807F02DD4FF4807500E02546EBE700BF88
:10167000BDE8F08110B504462403FFF76AFFFFF7C9
:10168000A5FF00204F4908602020FFF74CFEC4F35F
:101690000740FFF748FEC4F30720FFF744FEE0B21F
:1016A000FFF741FE01204849C1F8B001FFF78EFF66
:1016B00010BD2DE9F04781460F4616464FEA173810
:1016C000C7F30B0ACAF58054A64200DC344644E056
:1016D0004FEA08314FF480524048FFF752FF00258F
:1016E00008E00AEB05003D49085CFF2800D003E054
:1016F000681C85B2A542F4DB00BFA54216DA40465D
:10170000FFF7B8FF002507E019F8050005EB0A010F
:10171000324A5054681C85B2A542F5DB4FEA0831C5
:101720004FF480522D48FFF782FF04E022463946ED
:101730004846FFF77CFFA64200D10FE008F1010800
:101740004FF0000AA1442744301B86B2B6F5805FF3
:1017500002DD4FF4805400E03446B9E700BFBDE835
:10176000F08710B5FFF7F5FEFFF730FF00201549B1
:101770000860C720FFF7D7FD01201349C1F8B00169
:10178000FFF724FF10BD10B500200E490860B920F6
:10179000FFF7C9FD01200C49C1F8B001032000F09A
:1017A000FEFF10BD10B5002006490860AB20FFF712
:1017B000BAFD01200449C1F8B001032000F0EFFF99
:1017C00010BD0000B081214200802142000C014088
:1017D00000140140002001401E0000207A0000207B
:1017E000002100BF15E000F080021AB10122FE4B7B
:1017F0001A6002E00022FC4B1A604206100E002222
:10180000F94B083B1A600122F84BC3F884214A1CAB
:10181000D1B20829E7DB704770B5064600250024E1
:101820000020F14908390860F049C1F88C01EE49FF
:101830000C3908603046FFF7D3FF062000F0AFFFF9
:101840000020EA49C1F88401012000F0A8FF01202E
:10185000E549083908600020E449C1F8840100BF67
:1018600013E04FF6FF7000EA44040020DE49083917
:1018700008600120DD49C1F88401DB488438006834
:1018800008B1601C84B2681CC5B2102DE9DB2411BC
:101890000120D5490C390860204670BD2DE9F04182
:1018A00086B080460027002407E04046FFF7B4FFDB
:1018B00001A921F81400601C84B20A2CF5DB002475
:1018C0001BE0601C85B214E001A830F8140001A9E7
:1018D00031F8151088420ADD01A830F8146030F89C
:1018E000150001A921F8140001A820F81560681C52
:1018F00085B20A2DE8DB601C84B2092CE1DB0027ED
:10190000022406E001A830F81400384487B2601CB5
:1019100084B2082CF6DB062097FBF0F086B2304646
:1019200006B0BDE8F0812DE9F04104460D46B0480F
:101930000078FFF7B3FF0646AE480078FFF7AEFF2A
:10194000074626802F800120BDE8F0817FB5044640
:101950000D4602A903A8FFF7E6FF064616B90020C8
:1019600004B070BD694601A8FFF7DDFF06460EB959
:101970000020F5E7BDF80400BDF80C10884206DC35
:10198000BDF80C10BDF804001E3081420CDBBDF820
:101990000C00BDF80410884236DCBDF80410BDF818
:1019A0000C001E3081422FDABDF80000BDF808108F
:1019B000884206DCBDF80810BDF800001E308142E8
:1019C0000CDBBDF80800BDF8001088421CDCBDF837
:1019D0000010BDF808001E30814215DABDF80C1069
:1019E000BDF80420881800EBD071C1F34F012180AD
:1019F000BDF80810BDF80020881800EBD071C1F3C5
:101A00004F0129800120ABE70020A9E770B504460B
:101A10000D4616467848068004F10D018AB2193940
:101A200088B22B462946FFF703F905F10D0083B272
:101A3000193881B222462046FFF7FAF86A1C91B2A3
:101A4000621C90B2FEF740FF6A1C91B2621E90B217
:101A5000FEF73AFF6A1E91B2621C90B2FEF734FFA5
:101A60006A1E91B2621E90B2FEF72EFF0622294630
:101A70002046FFF755F970BD70B504460D46164671
:101A80005D48068029462046FEF71EFF611C88B28D
:101A90002946FEF719FF681C81B22046FEF714FFA5
:101AA0006A1C91B2621C90B2FEF70EFF70BD2DE968
:101AB000F04104464C4864380068002853D124B1F2
:101AC0004E49881EFFF742FF3CE04C49881EFFF755
:101AD0003DFFB8B349491239B1F9200002F014FBB7
:101AE000074646491239088A02F026FB80464348D9
:101AF00012388169404602F033FB0646394602F04F
:101B0000A3F9054602F0E0FA3C4912390882B1F91E
:101B1000220002F0F9FA074638491239488A02F0E1
:101B20000BFB804635481238C169404602F018FB6D
:101B30000646394602F088F9054602F0C5FA2F49F3
:101B4000123948822D481238007D00F0800010BB09
:101B5000C0202A49123908750846008A888108463B
:101B6000408AC88117E025481238007D00F08000C7
:101B700040B122481238007D20F080001F49123900
:101B8000087508E000201D4912398881C8814FF688
:101B9000FF700882488219481238007D00F08000EA
:101BA000BDE8F08138B5154912398869144902F049
:101BB000D7FA044602F06CFA00900422114801881A
:101BC0006846FFF776FD0D491239C8690C4902F0E5
:101BD000C7FA044602F05CFA009004220948018822
:101BE000091D684610E000008C01224200002242DC
:101BF00048000020490000201A0000203200002088
:101C000020BCBE4C4A000020FFF753FD0222FA48D8
:101C100001880831F948FFF74CFD0222F648018897
:101C20000A31F648801CFFF744FD0122F248018882
:101C30000C31F248001DFFF73CFD0A200090012204
:101C4000ED4801880D316846FFF733FD38BD38B5E2
:101C5000002000900122E84801880D316846FFF716
:101C600090FC00980A284BD10422E348018868467A
:101C7000FFF787FC009802F047FA0446E04902F0BB
:101C800045F9DE49203988610422DB480188091DB5
:101C90006846FFF776FC009802F036FA0446D84909
:101CA00002F034F9D5492039C8610222D2480188AE
:101CB0000831D248FFF765FC0222CF4801880A317B
:101CC000CE48801CFFF75DFC0122CB4801880C3117
:101CD000CA48001DFFF755FCC848203890F824007A
:101CE00030B19020C7490870D020C749087005E07E
:101CF000D020C44908709020C3490870012038BD25
:101D00000020FCE72DE9FC5F04460D4617461E4601
:101D1000DDE90EABDDE90C894FF47840BB49088062
:101D2000BBA01021CDE90010BA4843880288A02149
:101D30002820FFF723FAB8A01021CDE90010B548FC
:101D400043880288A0217820FFF718FAB3A0102159
:101D5000CDE90010AF4843880288B4212820FFF75E
:101D60000DFAAFA01021CDE90010AA4843880288DF
:101D7000B4217820FFF702FAAAA01021CDE90010C3
:101D8000A44843880288C8212820FFF7F7F9A6A0B5
:101D90001021CDE900109F4843880288C82178208F
:101DA000FFF7ECF9A1A01021CDE900109948438874
:101DB0000288DC212820FFF7E1F99DA01021CDE960
:101DC0000010944843880288DC217820FFF7D6F978
:101DD00098A01021CDE900108E4843880288F02198
:101DE0002820FFF7CBF9102004232246A0210090E1
:101DF0004020FFF71AF9102004232A46A021009062
:101E00009020FFF712F9102004233A46B4210090E5
:101E10004020FFF70AF9102004233246B421009035
:101E20009020FFF702F9102004234246C8210090B9
:101E30004020FFF7FAF8102004234A46C8210090FA
:101E40009020FFF7F2F8102004235246DC21009086
:101E50004020FFF7EAF8102004235A46DC210090C6
:101E60009020FFF7E2F8102000906A4801880323D1
:101E70006020109AFFF7D9F8BDE8FC9F00B595B037
:101E8000002010900A9010901F20604908804FF6A3
:101E9000FF706A490880FEF725FD4FF478405B49E2
:101EA00008804FF6FF70FEF71DFD0020574908809F
:101EB0006348006810216423A022CDE90010282186
:101EC0000846FFF75BF94FF4784214210846FFF704
:101ED0009DFD00204949203908758861EDE3474898
:101EE00020384068099001200999884743482038E4
:101EF000007D00F0C000402870D100200A903F48CB
:101F00002038007D20F040003C4920390875084603
:101F1000018A11AA109822F8201038482038418AE6
:101F2000109802EB800041801098401CC0B21090C5
:101F30001098012806D0022815D0032829D004289B
:101F400010D141E04FF6FF7214210846FFF75EFD05
:101F500030480088143880B24FF478421421099038
:101F6000FFF754FD99E32B480088143880B24FF6F0
:101F7000FF7214210990FFF749FD26484088143864
:101F800080B24FF47842014609901420FFF73EFDDD
:101F900083E320484088143880B24FF6FF72014630
:101FA00009901420FFF732FD1A484088143880B297
:101FB000099018480088143880B24FF4784208908D
:101FC0000999FFF723FD68E3BDF84400BDF8481008
:101FD000401A0990002802DB099802E05EE30998A4
:101FE00040420D90BDF8461011A8C088081A09900B
:101FF000002827DB099827E04A0000204000002045
:1020000020BCBE4C48000020490000201A000020DF
:1020100078313A007000002079313A0078323A0085
:1020200079323A0078333A0079333A0078343A001A
:1020300079343A006661632069733A001C0000201D
:102040004C000020099840420C900D9840430D90A0
:102050000C9840430C90DDE90C100844059001F009
:1020600008FDCDE9060101F0A4FCCDE9080101F06D
:10207000D3FC80B20F90BDF84C00BDF85010401A50
:102080000990002801DB099801E0099840420D9071
:1020900011A84189C089081A0990002801DB099814
:1020A00001E0099840420C900D9840430D900C9827
:1020B00040430C90DDE90C100844059001F0D9FC78
:1020C000CDE9060101F075FCCDE9080101F0A4FCA1
:1020D00080B20E900E9802F02FF809900F9802F03F
:1020E0002BF80890099901F011FF0B900B9801F063
:1020F0007FFEFE4AFE4BCDE9080101F0CDFC0DD379
:102100000B9801F075FEFB4AFB4BCDE9080101F08D
:1021100053FD03D30F9808B10E98E8BB0020109030
:10212000F6484088143880B20990F4480088143882
:1021300080B24FF6FF7208900999FFF767FC4FF4E1
:10214000784214210846FFF761FCED490B9802F034
:1021500007F8089001F0B8FF80B211A90990C98969
:10216000BDF8502011AB5B89CDE90132CDE90310F8
:10217000BDF84C00009011A8C0880890BDF8480038
:102180000790BDF846000690BDF84400059006A9EA
:102190000EC9FFF7B7FD90E2FFE7BDF84400BDF8B8
:1021A0004C10401A0990002801DB099801E00998B9
:1021B00040420D90BDF8461011A84089081A0990B8
:1021C000002801DB099801E0099840420C900D9825
:1021D00040430D900C9840430C90DDE90C100844EE
:1021E000059001F046FCCDE9060101F0E2FBCDE9E6
:1021F000080101F011FC80B20F90BDF84800BDF855
:102200005010401A0990002801DB099801E0099854
:1022100040420D9011A8C188C089081A0990002871
:1022200001DB099801E0099840420C900D98404369
:102230000D900C9840430C90DDE90C10084405907B
:1022400001F017FCCDE9060101F0B3FBCDE908016F
:1022500001F0E2FB80B20E900E9801F06DFF099044
:102260000F9801F069FF0890099901F04FFE0B905B
:102270000B9801F0BDFD9D4A9D4BCDE9080101F091
:102280000BFC09D30B9801F0B3FD9A4A9A4BCDE9A8
:10229000080101F091FC3DD2002010909748408841
:1022A000143880B2099095480088143880B24FF6EF
:1022B000FF7208900999FFF7A9FB4FF478421421A7
:1022C0000846FFF7A3FB8E490B9801F049FF0890E1
:1022D00001F0FAFE80B211A90990C989BDF8502019
:1022E00011AB5B89CDE90132CDE90310BDF84C009B
:1022F000009011A8C0880890BDF848000790BDF86C
:1023000046000690BDF84400059006A90EC9FFF7E7
:10231000F9FCD2E1BDF84800BDF84C10401A099014
:10232000002801DB099801E0099840420D9011A8AE
:10233000C1884089081A0990002801DB099801E04A
:10234000099840420C900D9840430D900C984043E2
:102350000C90DDE90C100844059001F08AFBCDE9F2
:10236000060101F026FBCDE9080101F055FB80B222
:102370000F90BDF84400BDF85010401A0990002895
:1023800001DB099801E0099840420D90BDF8461024
:1023900011A8C089081A0990002801DB099801E0FA
:1023A000099840420C900D9840430D900C98404382
:1023B0000C90DDE90C100844059001F05AFBCDE9C2
:1023C000060101F0F6FACDE9080101F025FB80B223
:1023D0000E900E9801F0B0FE09900F9801F0ACFE3F
:1023E0000890099901F092FD0B900B9801F000FD07
:1023F0003E4A3F4BCDE9080101F04EFB09D30B9853
:1024000001F0F6FC3B4A3C4BCDE9080101F0D4FB5E
:102410003DD20020109039484088143880B209908D
:1024200036480088143880B24FF6FF720890099938
:10243000FFF7ECFA4FF4784214210846FFF7E6FA6A
:102440002F490B9801F08CFE089001F03DFE80B200
:1024500011A90990C989BDF8502011AB5B89CDE95C
:102460000132CDE90310BDF84C00009011A8C088DE
:102470000890BDF848000790BDF846000690BDF8EA
:102480004400059006A90EC9FFF73CFC15E1BDF814
:102490004800BDF84410401A079001F035FE09903D
:1024A000164800882838079001F02EFE08900999F8
:1024B00001F02CFD13498861BDF84800BDF84410B7
:1024C0000844049001F020FE05900E488069014602
:1024D0000490059801F044FE079008480088059094
:1024E00001F02AFE069007990EE00000CDCCCCCC7E
:1024F000CCCCEC3F9A9999999999F13F70000020C2
:102500000000C8422000002001F0F6FE4FF080419C
:10251000089001F0FBFC099001F0BAFD00B281497E
:10252000088411A84089BDF84610401A079001F0B0
:10253000EBFD09907C4840882838079001F0E4FDC5
:102540000890099901F0E2FC7649C86111A8408918
:10255000BDF846100844049001F0D6FD059071487E
:10256000C06901460490059801F0FAFD07906E4895
:102570004088059001F0E0FD0690079901F0BCFE4F
:102580004FF08041089001F0C1FC099001F080FDFE
:1025900000B26449488408468069079001F078FDDC
:1025A0000890002801DB089801E0089840420228C2
:1025B0000DDC5C48C069079001F06AFD09900028B5
:1025C00001DB099801E009984042022842DD002021
:1025D000109055484088143880B2099052480088BD
:1025E000143880B24FF6FF7208900999FFF70EFA7F
:1025F0004FF4784214210846FFF708FA4BA0102147
:10260000CDE9001048484088099047480088089064
:1026100002461A212820099BFEF7B0FD414890F898
:10262000240008B9012000E000203E4981F8240080
:10263000084690F8240030B1902041490870D0201D
:102640004049087005E0D0203D49087090203D4980
:10265000087032E01F203C4908804FF6FF70FEF7FB
:1026600041F93AA01021CDE900102F484088099087
:102670002D480088089002466E212320099BFEF712
:102680007DFD4FF47A7000F0AEF8FFF78BFA4FF64D
:10269000FF70FEF727F915B000BD00BF0A2000F05B
:1026A000A2F80A98401C80B20A900A98B0F57A7F86
:1026B00002DDFFF7CCFA01E000BF10E400BF00BF6D
:1026C000E9E708B50121102000F0D4FC0B20ADF89B
:1026D000000003208DF8020010208DF803006946E9
:1026E000204800F00BFA40F20440ADF8000003204F
:1026F0008DF8020048208DF803006946194800F063
:10270000FDF928201849088006491231881EFFF774
:102710000AF9FFF79CFA08B1002008BDFFF797FA05
:102720000120FAE720000020700000205450204EC5
:1027300065656420726561646A75737421000000C8
:1027400048000020490000201A000020546F7563E3
:10275000682053637265656E2041646A75737420E6
:102760004F4B2100001001404A00002010B56FF0CF
:10277000040001F0BCF82E4800682E49B0FBF1F0CF
:102780002D4908700846007800EB4001C1EBC010ED
:102790004FF6FF7101EAC0002849088010BD0146CC
:1027A000254A12784A434FF0E0235A6100229A6189
:1027B0001A46126942F001021A6100BF4FF0E0228E
:1027C000106900F001021AB100F48032002AF5D03D
:1027D0004FF0E022126922F001024FF0E0231A616B
:1027E00000229A6170470146144A12884A434FF00A
:1027F000E0235A6100229A611A46126942F00102EE
:102800001A6100BF4FF0E022106900F001021AB116
:1028100000F48032002AF5D04FF0E022126922F055
:1028200001024FF0E0231A6100229A617047000014
:102830000400002000127A00500000205200002006
:1028400010B54FF4A06001F003F810BD10B50A46B2
:102850000346C41700EB1454241330341470C41707
:1028600000EB14542413A0EB0434A1B20B46CC1794
:1028700001EB14642412303454700346C41700EB87
:1028800014642412A0EB0424A1B20B46CC1701EB74
:1028900014742411303494700346C41700EB14747C
:1028A0002411A0EB0414A1B201F13003D370202352
:1028B000137110BD014600BF704700BF4B4A12881C
:1028C00002F04002002AF9D0C2B2484B1B1D1A8008
:1028D000704710B586B00446012144F2040000F0B0
:1028E000C9FB424800F0B0FD4FF40070ADF8140091
:1028F00003208DF8160018208DF8170005A93C4814
:1029000000F0FCF84FF48060ADF8140004208DF85E
:10291000170005A9364800F0F1F825208DF80000D1
:1029200003208DF801008DF8020001208DF80300CE
:10293000684600F092FF01940020ADF80800ADF861
:102940000A00ADF80C00ADF810000C20ADF80E0038
:1029500001A9264800F0BBFD012240F22551234881
:1029600000F04DFE0121214800F03DFE06B010BDF3
:1029700010B540F225511D4800F026FF10B31B484A
:1029800000F0A2FEC4B21B48008800F40040C8B9A1
:102990001848008800F4804060B10A2C03D0002061
:1029A0001449088020E01348008840F40040114991
:1029B000088019E00D2C06D10E48008840F48040B4
:1029C0000C49088010E00B480088C0F30D000A494C
:1029D0000C5408480088401C0649088008460088B6
:1029E000C72801DD0020088010BD0000003801402C
:1029F00000080140580000207A1000200948804754
:102A000009480047FEE7FEE7FEE7FEE7FEE7FEE7D0
:102A1000FEE7FEE7FEE7FEE704480549054A064BE8
:102A2000704700008305000831010008A81100204C
:102A3000A8170020A8130020A813002010B50446F2
:102A4000CC48844208D10121042000F02DFB002154
:102A5000042000F029FB46E0C748844208D1012148
:102A6000082000F021FB0021082000F01DFB3AE0C7
:102A7000C248844208D10121102000F015FB00213A
:102A8000102000F011FB2EE0BD48844208D1012146
:102A9000202000F009FB0021202000F005FB22E0AF
:102AA000B848844208D10121402000F0FDFA0021FD
:102AB000402000F0F9FA16E0B348844208D1012121
:102AC000802000F0F1FA0021802000F0EDFA0AE009
:102AD000AE48844207D10121801500F0E5FA0021BB
:102AE000A01500F0E1FA10BD10B50121084600F074
:102AF000DBFA0021012000F0D7FA10BD2DE9F041EA
:102B0000024600250026002000230024002791F81B
:102B100003C00CF00F0591F803C00CF0100CBCF1D1
:102B2000000F03D091F802C04CEA050591F800C0EF
:102B3000BCF1000F31D0146800202BE04FF0010CE5
:102B40000CFA00F3B1F800C00CEA03069E4220D153
:102B500083004FF00F0C0CFA03F7BC4305FA03FC9B
:102B60004CEA040491F803C0BCF1280F06D14FF0E1
:102B7000010C0CFA00FCC2F814C00AE091F803C082
:102B8000BCF1480F05D14FF0010C0CFA00FCC2F863
:102B900010C0401C0828D1D31460B1F800C0BCF1AB
:102BA000FF0F34DD546800202EE000F1080C4FF0D8
:102BB000010808FA0CF3B1F800C00CEA03069E42C3
:102BC00021D183004FF00F0C0CFA03F7BC4305FA38
:102BD00003FC4CEA040491F803C0BCF1280F05D1B2
:102BE00000F1080C08FA0CF8C2F8148091F803C040
:102BF000BCF1480F07D100F1080C4FF0010808FAAA
:102C00000CF8C2F81080401C0828CED35460BDE8F0
:102C1000F0814FF6FF710180022181700421C170A3
:102C200070470246002093680B400BB1012000E082
:102C3000002070470146886880B270470246002035
:102C4000D3680B400BB1012000E000207047014623
:102C5000C86880B2704701617047416170470AB12E
:102C6000016100E041617047C16070474FF48032FC
:102C70000A4382618161826182698269704702468A
:102C80000020434B18684FF68073184040EA02104A
:102C900008433F4B186070473E49C8617047F0B524
:102CA0000A46002300240021002500F00046B6F16A
:102CB000004F02D1364EF16901E0354E7168C0F324
:102CC000034583B200F44016B6F5401F08D121F049
:102CD00070612F4E766826F070662D4F7E6012E090
:102CE00000F48016B6F5801F06D1032606FA05F417
:102CF000A14341F0706106E0460D360103FA06F685
:102D0000B14341F0706122B1460D360103FA06F677
:102D1000314300F00046B6F1004F02D11C4EF16184
:102D200001E01B4E7160F0BD30B500228B071C0F17
:102D30000F2303FA04F2164B08338C1053F8243097
:102D40009343134C08348D1044F8253023468C10DF
:102D500053F824308C07240F00FA04F423430C4C5E
:102D600008348D1044F8253030BD0A49DC31086044
:102D70007047000000080140000C014000100140B5
:102D80000014014000180140001C014000200140D7
:102D90000000014000002042DF48006840F00100D0
:102DA000DD49086008464068DC490840DA49486067
:102DB00008460068DA490840D749086008460068B4
:102DC00020F4802008600846406820F4FE00486037
:102DD0004FF41F0088607047CF49096821F48031A3
:102DE000CD4A11601146096821F480211160B0F5C7
:102DF000803F03D0B0F5802F0ED106E0C6490968A8
:102E000041F48031C44A116007E0C349096841F4C4
:102E1000A021C14A116000E000BF00BF704710B59B
:102E200001460022002300204A11012A02D1BA4C97
:102E3000236806E0022A02D1B74C236A01E0B64CAF
:102E4000636A01F01F02012494401C400CB1012070
:102E500000E0002010BD38B50020009000240025BF
:102E600000BF3120FFF7DBFF05460098401C0090B3
:102E70000098B0F5A06F01D0002DF2D03120FFF7FF
:102E8000CEFF08B1012400E00024204638BD0146F1
:102E90000020A14A106820F0F80040EAC10010604C
:102EA0007047A04908607047024600209A4B586856
:102EB00020F47C1042EA01031843974B5860704796
:102EC00098490866704701460020934A506820F0F0
:102ED00003000843506070478F48406800F00C00C2
:102EE0007047014600208C4A506820F0F0000843EB
:102EF0005060704701460020874A506820F4E06027
:102F000008435060704701460020834A506820F40F
:102F1000605040EAC1005060704729B17E4A527A41
:102F200002437D4B5A7204E07B4A527A82437A4BC9
:102F30005A7270477B49D8310860704701460020BB
:102F4000754A506820F440400843506070470021A3
:102F5000714A20321170704A82F82010012802D084
:102F600004280AD104E001216B4A2032117005E0E7
:102F70000521694A2032117000E000BF00BF704790
:102F80006949086070476449096A0143624A1162ED
:102F90007047654944390860704730B50021002208
:102FA000002400235C4D6D6805F00C0121B104295B
:102FB00005D0082923D105E05C4D056022E05B4D7A
:102FC00005601FE0544D6D6805F47012524D6D6838
:102FD00005F48034022505EB92421CB9544D55434B
:102FE00005600BE04C4D6D6805F400351DB1504D8A
:102FF0005543056002E04D4D5543056002E04B4DE1
:10300000056000BF00BF444D6D6805F0F00109097F
:10301000484D6B5C0568DD4045603F4D6D6805F4CB
:10302000E061090A434D6B5C4568DD4085603A4DBF
:103030006D6805F46051C90A3E4D6B5C4568DD4022
:10304000C560354D6D6805F44041890B3A4D6B5CA8
:10305000C568B5FBF3F5056130BD29B12E4A52694B
:1030600002432D4B5A6104E02B4A526982432A4B9A
:103070005A61704729B1284A92690243264B9A61E6
:1030800004E0254A92698243234B9A61704729B133
:10309000214AD2690243204BDA6104E01E4AD26918
:1030A00082431D4BDA61704729B11B4AD268024343
:1030B000194BDA6004E0184AD2688243164BDA6092
:1030C000704729B1144A12690243134B1A6104E094
:1030D000114A12698243104B1A61704712494039F4
:1030E000086070470F49C86470470B49C871704742
:1030F0000948406A40F080700749486270470146BD
:103100000020054A92680A400AB1012000E0002030
:103110007047014988727047001002400000FFF8B4
:10312000FFFFF6FE000042428004424200127A0095
:1031300000093D005A0000206A00002010B5044636
:10314000BE48844208D101218014FFF7ADFF002161
:10315000A014FFF7A9FF16E0B948844208D1012165
:103160000014FFF7AEFF00212014FFF7AAFF0AE0CA
:10317000B448844207D10121C013FFF7A2FF002108
:10318000E013FFF79EFF10BD10B50022028802F485
:1031900041520B884C8823438C882343CC8823439B
:1031A0000C8923434C8923438C892343CC892343B3
:1031B0001A430280838B4FF2FF74234083830B8A70
:1031C000038210BD2DE9F04F85B005460C464FF047
:1031D000000902274FF000084FF0010B0026B2460D
:1031E000A88B4FF240010840A88302202884B5F83C
:1031F0001C90A068022801D100BF38E0A08810B957
:103200004FF0010B01E04FF0020B8D48854200D1D9
:1032100000E000BF6846FFF7C0FEDDF800A0E088D0
:10322000B0F5007F0AD14FEA1A2000EB8000400081
:10323000A168B0FBF1F0401D86B20BE04FEA4B10E5
:10324000BAFBF0F000EB80004000A168B0FBF1F0A9
:10325000401D86B20A20B6FBF0F606F00108A6EB88
:103260000800C0F34F074FF6FF7000EA0828022F4E
:1032700001DBFF2F02DD02274FF00008E08840EA63
:10328000080038432884A088A1890843618808433E
:103290002188084340F4006040EA0909A5F81C9021
:1032A00005B0BDE8F08F0021018041808180C180A0
:1032B000018141818181C181072101827047002103
:1032C000018041808180C180022181600021818153
:1032D000704721B1028842F04002028004E0028877
:1032E0004FF6BF731A400280704721B1828B42F4BF
:1032F0008062828304E0828B4FF6FF331A40828320
:10330000704730B5002400230C110125A540ABB255
:103310001AB185881D43858002E085889D4385809C
:1033200030BD1AB183880B43838002E083888B43CE
:1033300083807047818170470146888970474FF6C6
:10334000FF62914204D0028842F48072028004E05D
:1033500002884FF6FF631A400280704721B18288CD
:1033600042F00402828004E082884FF6FB731A4028
:103370008280704702884FF2FF731A4002800288F1
:103380000A4302807047018841F4805101807047F0
:1033900021B1028842F40052028004E002884DF616
:1033A000FF731A400280704702460020012901D0B5
:1033B000108B00E0908A70470146088A7047B1F58B
:1033C000804F04D1028842F48042028004E00288E7
:1033D0004BF6FF731A4002807047024600201389A3
:1033E0000B400BB1012000E000207047CA4302816E
:1033F0007047F0B50246002000240023002501F0AC
:103400000F070126BE40B4B20B1101269E40B3B295
:10341000968806EA03051689264016B10DB10120EB
:1034200000E00020F0BD10B5002201F00F040123E0
:10343000A3409AB2D343038110BD00000030014085
:1034400000380040003C004010B50446FB48844270
:1034500009D101218803FFF727FE00214FF48040A6
:10346000FFF722FE32E0F648844209D101214804E8
:10347000FFF727FE00214FF40030FFF722FE25E082
:10348000F048844209D101218804FFF71AFE002187
:103490004FF48020FFF715FE18E0EB48844209D175
:1034A0000121C804FFF70DFE00214FF40020FFF7B3
:1034B00008FE0BE0E548844208D101210805FFF72A
:1034C00000FE00214FF48010FFF7FBFD10BD2DE939
:1034D000F04786B005460E460024A24600BFA1462E
:1034E0000027B08900B100BF2F462C8A4CF6FF7030
:1034F0000440F08804432C82AC894EF6F31004405B
:10350000B08831890843718908430443AC81AC8A8F
:103510004FF6FF400440B0890443AC8201A8FFF796
:103520003CFDC648874202D1DDF810A001E0DDF87D
:103530000CA0A88900F4004040B10AEBCA0000EBDF
:103540000A1031684900B0FBF1F807E00AEBCA0045
:1035500000EB0A1031688900B0FBF1F86420B8FB79
:10356000F0F004012009642101FB1089A88900F40E
:10357000004040B1322000EBC900B0FBF1F000F098
:103580000700044308E0322000EB09106421B0FB7F
:10359000F1F000F00F0004432C8106B0BDE8F08785
:1035A0004FF41651016000218180C18001810C21FE
:1035B000418100218181704710B502460020108AA8
:1035C0004FF2FF0318400B884C8823438C88234319
:1035D000CC8823431843108210BD00210180418014
:1035E0008180C180704721B1828942F4005282817A
:1035F00004E082894DF6FF731A4082817047F0B56E
:103600000346002400260025002040F66A17B94230
:1036100000D100BF1846C1F3421401F01F06012774
:1036200007FA06F5012C01D10C3004E0022C01D17F
:10363000103000E014301AB107682F43076002E031
:103640000768AF430760F0BD1AB1838A0B438382DA
:1036500002E0838A8B4383827047028A4FF6F073BD
:103660001A400282028A0A430282704782894FF21C
:10367000FF731A40828182890A438281704721B197
:10368000828942F00202828104E082894FF6FD7352
:103690001A4082817047028A4FF6DF731A40028215
:1036A000028A0A430282704721B1028A42F48042B0
:1036B000028204E0028A4BF6FF731A4002827047CE
:1036C000C1F308028280704701468888C0F3080071
:1036D0007047818941F0010181817047028BD2B22C
:1036E0000283028B42EA012202837047028B02F4BA
:1036F0007F420283028B0A430283704721B1828A90
:1037000042F02002828204E0828A4FF6DF731A4080
:103710008282704721B1828A42F01002828204E0E4
:10372000828A4FF6EF731A408282704721B1828AF3
:1037300042F00802828204E0828A4FF6F7731A4050
:103740008282704721B1828942F40042828103E083
:103750008289C2F30E028281704721B1828A42F4CB
:103760000062828204E0828A4FF2FF731A408282F2
:103770007047828A4FF6FB731A408282828A0A431C
:103780008282704721B1828A42F00202828204E082
:10379000828A4FF6FD731A408282704702460020EB
:1037A000B1F5007F00D100BF13880B400BB10120A1
:1037B00000E00020704701F40072B2F5007F00D1F4
:1037C00000BFCA430280704770B502460024002340
:1037D0000025002040F66A16B14200D100BFC1F3B7
:1037E000421501F01F03012606FA03F3012D02D151
:1037F0009689334006E0022D02D1168A334001E05B
:10380000968A33400C12012606FA04F416883440D6
:1038100013B10CB1012000E0002070BD10B50022F2
:10382000002340F66A14A14200D100BF0A1201240D
:103830009440A3B2DC43048010BD00000038014076
:103840000044004000480040004C00400050004050
:1038500031490143314A1160704770B5002100239E
:103860000F22C47804B32D4C246804F4E064C4F53A
:10387000E064210AC1F10403CA40447804FA03F168
:103880008478144021430901254C0678A155047819
:1038900004F01F050124AC4005786D11AD0005F161
:1038A000E025C5F8004109E0047804F01F05012473
:1038B000AC401C4D0678761145F8264070BD1A4A7A
:1038C0000A400243154B1B1F1A60704739B1134A57
:1038D000121D12680243114B1B1D1A6006E00F4AAD
:1038E000121D126882430D4B1B1D1A60704704287D
:1038F00008D14FF0E021096941F004014FF0E022C6
:10390000116107E04FF0E021096921F004014FF057
:10391000E0221161704700000000FA050CED00E0A4
:1039200000E400E080E100E080FFFF1F7047704787
:1039300070477047704710B500F008F8006810BD78
:1039400010B5044600F002F8046010BD004870474E
:103950004411002000487047441100207546FFF7CD
:10396000F9FFAE4605006946534620F0070085463C
:1039700018B020B5FFF750F8BDE820404FF0000622
:103980004FF000074FF000084FF0000B21F0070147
:10399000AC46ACE8C009ACE8C009ACE8C009ACE88A
:1039A000C0098D4670470446AFF300802046FCF7FF
:1039B00006FC2DE9F04106460F4600F033F90400FD
:1039C0000D4618BF0120284320F00040C0F17F6061
:1039D00000F1E040C00F0ED0301C18BF012038436A
:1039E00020F00040C0F17F6000F1E040C00F04BF54
:1039F0000120FFF7A5FF20462946BDE8F0814910C8
:103A000058BFC1F140415B1058BFC3F140438B42E6
:103A1000EFF30080704700004FEA1153A3F5806375
:103A2000D3F11E03A8BFD3F1200C08DB4FF00042F6
:103A300042EAC12252EA505232FA03F07047094278
:103A40000BD4102BC4BF0020704703F5787CBCF169
:103A5000FF3F05D04FF0FF3070474FF00000704738
:103A600070B500F055F800BF4992248000207047DF
:103A7000F0E7B0FA80F310FA03F10AD0C3F11D03A6
:103A800003F580634FEA41504FEA035202EBD12124
:103A900070474FF00000704751EA030C17D41CF533
:103AA000801F58BFBCF5801F00F10680994218BFE7
:103AB000704708BF9042704707D711F5801F58BF65
:103AC00013F5801F19D499427047894270471CF53D
:103AD000801F08D5BCF5801FF7D58B4218BF7047F3
:103AE00008BF824270474FF4001C1CEB410F38BFE7
:103AF0001CEB430F01D28B42704770B500F008F801
:103B0000922449004FF000514FF08053FFF777BFE8
:103B10000EF1020E2EF0030E5EF8046B364205D451
:103B2000012A43EB030515F5001F12D8012841EBCC
:103B3000010C1CF5001F0CD80ED14FEAD17C15F5F5
:103B4000001F0CEB4C0C0CF1020C08BF4CEBD37CAF
:103B500004E04FF0080C01E04FEAD37C0CEB4C057D
:103B600026FA05F606F00706B6F1040C06D20EEBAF
:103B7000860CBDE870404CF0010C6047DFE80CF0AB
:103B8000090B02024FF000414FF00000A1F50021A7
:103B900070BD19461046012851EB010418BFD4F539
:103BA000001484BF002001F0004170BD0808A0F59A
:103BB00000114FEA3101704753EA010C17D41CF58C
:103BC000801F58BFBCF5801F00F106808B4218BFD4
:103BD000704708BF8242704707D713F5801F58BF50
:103BE00011F5801F19D48B4270479B4270471CF51A
:103BF000801F08D5BCF5801FF7D5994218BF7047C4
:103C000008BF904270474FF4001C1CEB430F38BFB5
:103C10001CEB410F01D2994270470FB40CBC03BC9E
:103C2000FFF76BBF2DE9F04101F5801CBCF5001FCB
:103C3000C0F2C3804FEA115C21EA0C510CF1FD0C7B
:103C400041F480115FEA5C0C0CF5C07C01D34000AC
:103C500049413DA4890241EA905187028E0E0A0C27
:103C6000A45D04FB04F602FB06F6C6F14046A4FB85
:103C70000662F60D46EA422606FB06F4A4FB012383
:103C80005242C3F1404338BF5B1EA6FB02420024F0
:103C9000E6FB0324D20B42EA4446A6FB0623A1FB23
:103CA00002E2A3FB07E4A4184FF0000252F1000265
:103CB000E3FB01426442C2F1404E38BFAEF1010E57
:103CC000A6FB04234FF00002E6FB0E32A2FB0346E4
:103CD0004FF00004B61954F10004E2FB0264A1FBAA
:103CE00006E6A4FB07E816EB08064FF0000858F1BB
:103CF0000008E4FB01687642C8F1405838BFA8F1DB
:103D00000108A2FB06E4A3FB08E52D194FF000040F
:103D100054F10004E2FB0854A1FB05E6A7FB04E80C
:103D200018EB06084FF0000656F10006E1FB04868A
:103D300018F1200556F10006A809A8F11B08B109E1
:103D400008F03F08B8F10A0F40EA86601CD901EB81
:103D50000C51BDE8F08100BFFCF5EEE8E2DDD8D300
:103D6000CFCBC7C3C0BDB9B6B4B1AEACA9A7A5A3EC
:103D7000A19F9D9B9A9896959392908F8D8C8B89FD
:103D80008887868584838281A0FB006800FB01F21E
:103D900008EB4208B8EB872807D5341858EB010424
:103DA000D5D5401C51F10001D1E7341A78EB01045C
:103DB000CDD4401E71F10001C9E75FEA4C0C5FEA07
:103DC0009C5C0DD105D34FF0000001F00041BDE82F
:103DD000F081BDE8F04170B5FFF79AFE6DDBFFBEE4
:103DE000BDE8F0414FF00000004970470000F87F47
:103DF00043004FEAD30C4FEA3C0C43401FBF40073F
:103E00000CF1605113F0FE4F70471CF0006F03D1AE
:103E100000200CF0004170470CF0004343EA507062
:103E200010B540EACC0000F01CFA00BF0000009280
:103E30004FEA0001FFF7BABE4FF000414FF000001B
:103E4000A1F500217047000090EA010F48BF81F002
:103E5000004100F15882421A3CBF801A89184FEA8B
:103E6000D0524FF07F4C1CEA410FA2EBD15318BF48
:103E70009CEA026F00F03B804FF0004C4CEA0020BF
:103E80004CEA012121FA03FC10EB0C0C1ED202F1CA
:103E9000FF325FEA1C2040EBC25038BF70471CF075
:103EA0007F0F4FEA400C18BFBCF17F4F38BF7047FF
:103EB000C3F12003994008BF20F00100BCF17F4FFF
:103EC00038BF7047A0F1C04000F011BA4FEA3C0083
:103ED000000A40EBC25028BF1CF0FF0F4FEA400C15
:103EE000E6D018BFBCF17F4F38BF7047EAE79CEAC5
:103EF000026F05D010EA5C0F08BF00F00040704769
:103F000010B500F0AEF900BF64FBBE3E4FF47F0C6D
:103F10001CEAD0121EBF1CEAD11392EA0C0F93EADE
:103F20000C0F00F0858090EA010F48BF42F48072C8
:103F300040F4000C41F400002CF07F4120F07F4061
:103F400000B58142A2EB03020FF2081CACEB504E0D
:103F5000C0F100009EF800E04FEA4E0E00FB0EFCA0
:103F600038BF49004FEA2C1C02F5FA020CFB0EF395
:103F70004FEACE1E4FEA112C4FEAC1210EEB635ED1
:103F800042EB22420EFB0CFC4FEA1C5300FB0311D8
:103F90004FEA112C4FEA01310EFB0CFC4FEADC4CCE
:103FA00000FB0C11C14228BF09184CEB03335DF82C
:103FB00004EB10EB410143EBC250B2F57C0F38BF6C
:103FC000704729D512F0F00F1CBF00F1C04000F07F
:103FD00000407047008182838485868788898B8C26
:103FE0008D8E8F919293959697999A9C9D9FA0A262
:103FF000A3A5A7A8AAACAEB0B2B3B5B7B9BCBEC0B2
:10400000C2C5C7C9CCCED1D4D7D9DCDFE2E6E9EC52
:10401000F0F3F7FAFE0000004FEA400C0CF1807C50
:10402000BCF17E4F28BF7047B0F1C04000F05FB9CF
:1040300090EA010F0CEAD11348BF42F48072624546
:1040400038BF634507D213F47F0F16D080EA010012
:1040500000F00040704710B500F003F9097EFC3E07
:1040600000F005B880EA010000F00040704780EAE7
:10407000010000F0004000F03AB912F47F0F04BFD5
:104080000248704780EA010000F031B90000C07FAB
:1040900041000B0ED3F19E0208D950F400034FEA01
:1040A000032323FA02F048BF4042704710B500F0E6
:1040B000D8F800BF49922480002070476FF000427A
:1040C00082EA200070470000C10DD1F19E0206DB9C
:1040D0004FEA002343F0004323FA02F07047004206
:1040E00007D54FEA4001B1F1FE4F02D24FF0000078
:1040F000704710B500F0B5F8499224800020704751
:104100006FEA20007047000010F0004148BF4042B5
:10411000B0FA80F310FA03F2C3F19D030BD051EA19
:10412000C35101EB1220530638BF704700F1010064
:1041300008BF20F001007047B0FA80F310FA03F2D4
:10414000C3F19D030AD0D90501EB1220530638BFF5
:10415000704700F1010008BF20F001007047000027
:104160004FF47F0C1CEAD0121EBF1CEAD11392EA56
:104170000C0F93EA0C0F00F0478090EA010F48BF44
:1041800042F480724FF0004C4CEA00204CEA0121CE
:1041900002EB0302A0FB0113A2F50002002918BFE5
:1041A00043F001035B0028BF4FEA330342EB224296
:1041B0005FEA132C4CEBC2502EBFBCEB436FB2F541
:1041C0007C0F70474FEA036CBCF1004F08BF20F032
:1041D0000100B2F57C0F38BF70470BD582F0FF02AB
:1041E00012F5803FC8BF704700F1C040D8BF00F053
:1041F0000040704700F5000C5FEA4C0C48BF704768
:10420000B0F1C04000F073B890EA010F0CEAD1138E
:1042100048BF42F48072624538BF634504D280EAE9
:10422000010000F00040704710B500F01AF800BF20
:104230008900013E00F007B800F009B85FEA410CC0
:104240005FEA1C6C08D080EA010000F050B85FEA19
:10425000400C5FEA1C6CF6D14FF00040A0F58000E6
:1042600070470EF1020E2EF0030E5EF8044B24424E
:1042700004D44FEA4102B2F17F4F11D84FEA400314
:10428000B3F17F4F0CD80ED14FEAD07CB2F17F4F03
:104290000CEB4C0C0CF1020C08BF4CEBD17C04E095
:1042A0004FF0080C01E04FEAD17C0CEB4C0324FAF0
:1042B00003F404F00704B4F1040C06D20EEB840CF2
:1042C000BDE810404CF0010C6047DFE80CF0070837
:1042D00002024FF00040A0F5800010BD08464200E9
:1042E00018BFD2F1807288BF00F0004010BDFF21DE
:1042F00041EAD050C005704790EA010F48BF81F0F5
:1043000000413FF5A8AD421A04D882F00042A0EB6C
:10431000020011444FEAD0524FF07F4C1CEA410F8B
:10432000A2EBD15318BF9CEA026F4AD04FF0004C69
:104330004CEA00204CEA012121FA03FCB0EB0C0C02
:104340000FD412F0FE0F36D05FEA4C001DD50012DC
:1043500040EBC25038BF70471CF03F0F18BF70478A
:104360000BE0A2F101025FEA1C2040EBC25038BF13
:1043700070471CF07F0F18BF7047C3F120039940AE
:1043800014BF401E20F00100704780084FEA12233E
:1043900008BF7047B0FA80FCA2EB0C02CCF1280CED
:1043A00060FA0CF093EA122F04BF00EBC250704782
:1043B0004FEAC3707047130A5FEADC1008BF70470A
:1043C000F6E79CEA026F04D010EA5C0F08BF0020F9
:1043D000704710B5FFF745FF40DFF63E81F0004023
:1043E000704700000000000000000040000030C0E6
:1043F0000100E0E00100C0E10000C061001880F1B0
:10440000FF3F00700018003E001804DA01181CEE8F
:104410000118386F601878F7FF1870318618B019D6
:1044200006188009061880058619C0FEFF1BC0000B
:10443000061AC0306618E070E6197C30E618703055
:10444000E6186030E61870F8FF1C7030E01C700051
:10445000001C7000F01F7000800F000000070000BB
:104460000000000000000000000000008000000EBE
:10447000C00100FEFF03000EC001000EC001000ECF
:10448000C00100FEFF01000EC001000EC001000EC1
:10449000C00100FEFF01000EC00100064000000048
:1044A000000030700C18F0FFFC3F70700C1870703A
:1044B0000C1870700C1870700C18F07FFC1F707066
:1044C0000C1870700C1870700C1870700C187070DC
:1044D0000C18F07FFC1F70700C1810000400000016
:1044E000000000000000000000000000300000009C
:1044F0007000001C7000FC1F7000008C7100208C8C
:104500007700E08C7304F08E731E708EF31F708E34
:10451000FB0C708E7F0C70FE730C3086730C308633
:10452000730C3096730CF8BF730C38F8730C00B82A
:10453000730C00B8F30F00BE7306E09B73307E98D7
:1045400073301C981330089C0330009C0330008C9F
:104550000378E00FFF7F80070000000300000000E9
:104560000000800080008000FC1F40004000FF7FB2
:1045700020001000F00F000800046002800100021B
:104580000004000104020800E83F010202020202E6
:104590000802C83F04020702040204020402F47F76
:1045A00000000000F80F08080808F80F08080808BD
:1045B000F80F2002222224222812280A2002FF7F3C
:1045C00000000000FC1F0000000000000000FF7F52
:1045D0008000800088088810842082408140A000EC
:1045E0004000400080008000FF7F2000200020006D
:1045F000E00F20082008200810081008080804050B
:1046000002028000FE3F02202000FF7F100478029B
:10461000C0033C1C8000FF7FA00290048C188360C4
:104620008000FFFFFFFFFFFFFFFFFFFFFFFFFFFF18
:10463000FFFFFFFFFFFFFFFFFFFFFFFFFFFFBEF7D3
:104640007DEFBAD6B6B5F39CB294B39CB29434A5C0
:10465000F7BDFBDE7DEFFFFFFFFFFFFFFFFFFFFF6B
:10466000FFFFFFFFFFFFFFFFFFFFFFFFFFFFFFFF5A
:10467000FFFFFFFFFFFFFFFFFFFFFFFFFFFFFFFF4A
:10468000FFFFFFFFFFFFFFFFFFFFBEF7FBDEF39C17
:10469000CB5AC739042182104210421041088318B6
:1046A0004529C7390C6375AD3CE7BEF7FFFFFFFF37
:1046B000FFFFFFFFFFFFFFFFFFFFFFFFFFFFFFFF0A
:1046C000FFFFFFFFFFFFFFFFFFFFFFFFFFFFFFFFFA
:1046D000FFFFFFFFFFFFFFFF3CE7B2940842C31854
:1046E000821004214529863186318631863145295B
:1046F000042182104108C3180842F39C3CE7FFFFE5
:10470000FFFFFFFFFFFFFFFFFFFFFFFFFFFFFFFFB9
:10471000FFFFFFFFFFFFFFFFFFFFFFFFFFFFFFFFA9
:10472000FFFFFFFFFFFFFBDE0C63C318C318452923
:10473000C739084208420842084208420842C739BD
:10474000C73986318631042141088210CB5ABAD646
:10475000FFFFFFFFFFFFFFFFFFFFFFFFFFFFFFFF69
:10476000FFFFFFFFFFFFFFFFFFFFFFFFFFFFFFFF59
:10477000FFFFFFFFFBDECB5A82104529C7390842F5
:104780000842094A494A494A494A494A494A084263
:10479000C739C739C7398631452983180000C84150
:1047A00038C6FFFFFFFFFFFFFFFFFFFFFFFFFFFF19
:1047B000FFFFFFFFFFFFFFFFFFFFFFFFFFFFFFFF09
:1047C000FFFF7DEF8E7382104529C7390842094AE1
:1047D0008A523084CF7B8A52494A4A52494ACB5A3C
:1047E000CF7B0C630842C73986314529C3180000C6
:1047F000494ABAD6FFFFFFFFFFFFFFFFFFFFFFFFA2
:10480000FFFFFFFFFFFFFFFFFFFFFFFFFFFFFFFFB8
:10481000FFFFF39CC3180421C7390842494A494A9B
:1048200072947DEF7DEFB2944A52494A8A5275AD37
:10483000BEF7BAD64D6BC739C73986314529C3187B
:104840004108CF7B7CE7FFFFFFFFFFFFFFFFFFFF7C
:10485000FFFFFFFFFFFFFFFFFFFFFFFFFFFFFFFF68
:10486000BAD608428210C7390842494A494A8E736B
:10487000FBDEFFFFBEF7BAD68E73084230843CE7FA
:104880007DEFFFFFB6B5494AC73986314529042176
:1048900041084529B6B5FFFFFFFFFFFFFFFFFFFF00
:1048A000FFFFFFFFFFFFFFFFFFFFFFFFFFFFBEF761
:1048B000718C410845290842494A494A4A52B294F2
:1048C000BEF7BEF7B294CF7BCF7B494AB6B5F39C17
:1048D0000C6338C6BAD60C638739C7398631452987
:1048E000C318410830847DEFFFFFFFFFFFFFFFFF8C
:1048F000FFFFFFFFFFFFFFFFFFFFFFFFFFFF3CE7A3
:10490000CB5A4108C7390842494A4A528A52F39C55
:10491000FFFF7DEFC739C3180C63CB5AB6B5B2940D
:10492000CB5A75ADFAD64D6B8739C73986314529D3
:10493000042141088A5279CEFFFFFFFFFFFFFFFFEE
:10494000FFFFFFFFFFFFFFFFFFFFFFFFFFFF38C677
:1049500086310421C841494A494A4A52494AB18CE0
:10496000BEF7BEF7B294CF7BCF7B494A74A57DEFEB
:104970007CE7BEF779CE0C63C739C7398631452944
:1049800004218210452975ADBEF7FFFFFFFFFFFF31
:10499000FFFFFFFFFFFFFFFFFFFFFFFFFFFF34A54C
:1049A000821086310842494A494A8A52494A4D6B27
:1049B000BAD6FFFFFFFF79CE0D63C739CF7B7DEFFE
:1049C000FFFFFFFF75AD08428631C73986314529A3
:1049D0004529C318C318B2947DEFFFFFFFFFFFFF07
:1049E000FFFFFFFFFFFFFFFFFFFFFFFFBEF7B28CE0
:1049F0004108C7390842494A494A8A528A524A4AB2
:104A0000D07B7AC67BBE906BC9398831C939B384F3
:104A1000BBC6F8B5CC5A8631C739C7398631452966
:104A20004529C420410830843CE7FFFFFFFFFFFF1A
:104A3000FFFFFFFFFFFFFFFFFFFFFFFF3CE78A4A8B
:104A4000C310C7390842494A494A4A4A4A42093AC0
:104A5000084A096B497BC67A05834683C57AC672C4
:104A6000097B485A87318821882986318631452932
:104A70004529042141084A4ABAD6FFFFFFFFFFFF3C
:104A8000FFFFFFFFFFFFFFFFFFFFFFFFF7C58250A4
:104A90000541C7290842494A4A42494A097B889B3D
:104AA000C6B321D4A0DCE1E461ED61ED21EDA0E429
:104AB00020DC80CB43ABC482065A472146294529D6
:104AC0000429041982108218F39C7DEFFFFFFFFF79
:104AD000FFFFFFFFFFFFFFFFFFFF7DEF4D9300A0F4
:104AE00082B8C7310932494A867A43C36BEDF4F67E
:104AF000EBFD20FD20FD60FDA0FDA0FD60FD60FD43
:104B000020FDE0FCA0FC60F4C1DB839AC549452987
:104B10000419C42082380050CB6ABAD6FFFFFFFFC9
:104B2000FFFFFFFFFFFFFFFFFFFFFBEE04A100C041
:104B300000F0C3A0C8414942059B20FCA4FC69FDCC
:104B4000E8FD63FD20FD60FD60FD60FD20FD20FDB2
:104B5000E0FCE0FCA0FC60FC20FC41D3C549451909
:104B6000C438826841880070495A79CEFFFFFFFF40
:104B7000FFFFFFFFFFFFFFFFFFFFFBF682C000D03C
:104B800086C146F141C8457989528862866AC67AEB
:104B9000C4BBE1FC60FD60FDA0FDA0FD60FD60FD0B
:104BA000E0FC60E403938472446AC5414529C3581C
:104BB00041A8409800B000600C6B79CEFFFFFFFF6A
:104BC000FFFFFFFFFFFFFFFF7DEFCE83828800F82E
:104BD000C4D80CF38AFA82E882B04569C75108420A
:104BE000083A865A839BA2BC22CD21CDA1C422B40F
:104BF000C47A063A862945290531C450419000C03F
:104C000000A800A000A800304A4ABAD6FFFFFFFF64
:104C1000FFFFFFFFFFFF7DEF8E73C318053982A8EA
:104C200000F8C3F84DFB4DFBC7F9C3F082D8C3B001
:104C30000481456146518649864946414541454181
:104C4000454105490461829041B000D000C800A8E8
:104C500000A800B8415882108210B294BEF7FFFF3E
:104C6000FFFFFFFFBEF7CF7B82100421862986411C
:104C7000049940E841F886F9CBFA49FA82F800F83D
:104C800000F000E841D841D041C041C041C041C01E
:104C900041C800D000E000E000D800D000B800A873
:104CA00041888248821082100000452979CEFFFF9A
:104CB000FFFFBEF7F39C8210C31845298631C73128
:104CC000307CF3DC86E100F000F841F841F800F8B0
:104CD00000F800F800F800F800F800F800F800F814
:104CE00000F800E800E000E000D800C841A08A9A7F
:104CF0000C63041182108210410800004D6B7DEF9F
:104D0000FFFFFBDE08424210452986318631494AC1
:104D100038BEFFFF38D686A900C800E000F000F8D2
:104D200000F800F800F800F800F800F800F800F0CB
:104D300000F000E800E000D0C3988A8AB2A4BAC6A6
:104D4000F7B5084241088210410800004529F7BD27
:104D5000FFFF718C410804214529863186310C639F
:104D60003CE7FFFF79D646B900E042C882A882B08E
:104D700041D882E882F041E841E841E841F041E869
:104D800041D804C108924D8B34A5FBC6FBD6BACEE0
:104D90003CE73084C3184108410800004108CF7B3C
:104DA0007DEF494A0000042145294631863130848F
:104DB000FFFFFFF7F7DD09DA83F801F042C08298C0
:104DC000499AF3B4F3CC71BC8EBB8EBB30BC71BCC2
:104DD000F3BCB6BDFBCEBEE77DE73BDFBAD679CEEE
:104DE000FBDE75AD86314108410800000000494AEC
:104DF000FBDE042141080421452945298739B29465
:104E0000FFFFBEF734DD0CEB09FA00F001D800D843
:104E10008BD27DE7FFFFFFFFFFFFFFFFFFFFFFFFDD
:104E2000FFFFFFFFBEFF7DEFFBDEFBDEBAD679CED4
:104E3000BAD678C6C7390000410800000000C7395B
:104E400079CE00008210C318042105298631B39C55
:104E5000FFFFFFF775DDC7E9C7F901F801F000E8CA
:104E600049E2FBEEFFFFFFFFFFFFFFFFFFFFFFFF3A
:104E7000FFFFFFFFBEF77DEFFBDEFBDEBAD679CE8C
:104E8000BAD6B9CE08420000000000000000C739C1
:104E900038C6000082108210042104214529308484
:104EA000FFFFFFFF38DEC4D000F001F800F800F08B
:104EB00008D2FBE6FFFFFFFFFFFFFFFFFFFFFFFF43
:104EC000FFFFFFFFBEF77DEFFBDEBAD679CE79CECE
:104ED000BAD679CEC73941080000000000008631FB
:104EE00038C600000000C318CB5A8631C318CB5A0D
:104EF0007DEFFFFF7DEFCFBBC3B041D041D082B883
:104F00004DB37DE7FFFFFFFFFFFFFFFFFFFFFFFF49
:104F1000FFFFBEF7BEF73DEFFBDEBAD679CE79CE06
:104F2000FAD6F7BD04218631042100000000863145
:104F300038C68631C318CB5A75ADCF7B4108863150
:104F4000F7BDFFFFFFFFBEEF74B5309C309C72A42D
:104F5000BBD6FFFFFFFFFFFFFFFFFFFFFFFFFFFFCE
:104F6000FFFFBEF77DEF3CE7FBDEBAD679CE79CE08
:104F70003CE7718C81080C63CF7B821000008A5261
:104F800038C675AD718CB6B53CE7FBDEC73900009D
:104F9000CF73FFFFFFFFFFFFFFFFFFFFFFFFFFFFDD
:104FA000FFFFFFFFFFFFFFFFFFFFFFFFFFFFFFFF11
:104FB000BEF77DEF7DEF3BDFFAD679CE79CEFBDE13
:104FC000B9CEC739C420718CBAD6718CCB5AB29481
:104FD000BAD6FFFF7DEF7DEFFFFFFFFFB6B5462995
:104FE000051975A5FFFFFFFFFFFFFFFFFFFFFFFF95
:104FF000FFFFFFFFFFFFFFFFFFFFFFFFFFFFFFFFC1
:10500000BEF77DEF3CE7FBDEBAD679CEBAD6FCDE42
:105010004E6342080C63F7BDBEF7FFFFFBDEFBDE0D
:10502000BEF7FFFFFFFFFFFFFFFFFFFFFFFFF49C47
:1050300004210521B6A5FFFFFFFFFFFFFFFFFFFFD4
:10504000FFFFFFFFFFFFFFFFFFFFFFFFBEF7BEF702
:105050007DEF3CE7FBDEBAD679CEFBDEBBD6D17363
:1050600083188639349DBDEFFFFFFFFFFFFFFFFF71
:10507000FFFFFFFFFFFFFFFFFFFFBEFF35D6EBCCBB
:1050800043B340510519F58CBEEFFFFFFFFFFFFF53
:10509000FFFFFFFFFFFFFFFFBEF7BEF77DEF7DEFD6
:1050A0003CE7FBDEBADEBAD63CDF3ABE4F6382494C
:1050B00040A323B4CC833ABEFFFFFFFFFFFFFFFFF7
:1050C000FFFFFFFFFFFFFFFFBFF7B5BD829220F498
:1050D000A0FC60E4408284418F6B77AD3DE7FFFF29
:1050E000FFFFFEFFBEF7BEF7BEF77DEF7DEF3CE7AB
:1050F000FBDEFBDE3DE7BBCE369D0B6B416A60C439
:1051000020FE60F5008BC76A38C6BEF7FFFFFFFFC1
:10511000FFFFFFFFFFFFFFFF7DEF4B7B80B2A0FC97
:10512000A0FCE0FCE0FCC0CBC18A45624D6BB394AF
:10513000F7BD3DDFFFF7FFFFBEF77DEF7DEF7DE7BA
:105140003DDFBAC675A58D7B847A40B3E0ECE0FD07
:10515000E0FD60F520E5A0D40A6BFBDEFFFFFFFF5A
:10516000FFFFFFFFFFFFFFFF7DEFCC9340EB60FCF5
:10517000A0FCE0FC20FD60FD20F5A0D4C0BB429B5C
:10518000458B6B9CAE9C718CB394339D34A5F2A47B
:10519000F0B4CA9B049B40BB20E420FDA0FDA0FD11
:1051A000E0FDE0FDE0FD20C4885A38BEFFFFFFFFB0
:1051B000FFFFFFFFFFFFFFFFFFFF78D646AB40DB9F
:1051C00020F460FCA0FCE0FC60FDA0FD60FD20F58B
:1051D000A0DCC0B3C05186290D638F7B0D5BC74136
:1051E000018200C3C0E360FCA0FCE0FCE0FC60F5D1
:1051F00060F520E5809B8662308479CEFFFFFFFF5B
:10520000FFFFFFFFFFFFFFFFFFFFFFFF38C62D9CE3
:10521000059343A382B3C2BBC2BB22B482A3429311
:10522000C37A85620B637184B6B579CE79C6B5ADA4
:1052300070944A8B06830493049B439B439B439344
:10524000048308738D73B39479CE7DEFFFFFFFFF66
:10525000FFFFFFFFFFFFFFFFFFFFFFFFFFFF3CDF41
:1052600038BE75B533A533A5F39CF39CF39CF3943A
:10527000F39C35A5F8BDFBDEBEF7FFFFFFFFFFFF88
:105280007EEFBBD6F8BDB6AD75AD34A5339D349D6C
:1052900035A5B7AD79C63CE7BEF7FFFFFFFFFFFFBF
:1052A000FFFF000000000000000000000000000000
:1052B00000003F40000000000000000030004000FF
:1052C00030004000000009000BC03D000BC03D0055
:1052D000090018C024407FE02240318000001800FF
:1052E00024C01B000D803240018003801C402740F9
:1052F0001C8007400040100060000000000000001B
:1053000000000000000000001F802040402000003E
:10531000402020401F8000000000090006001F8080
:10532000060009000000040004003F80040004009F
:1053300000000010006000000000000000000400F9
:10534000040004000400040000000000004000000D
:10535000000000000000002001C0060038004000EE
:1053600000001F802040204020401F8000000000DF
:1053700010403FC000400000000018C02140224003
:1053800024401840000010802040244024401B800E
:10539000000002000D0011003FC0014000003C80F1
:1053A000244024402440238000001F8024402440C7
:1053B0003440038000003000200027C03800200067
:1053C00000001B802440244024401B8000001C005F
:1053D00022C0224022401F80000000000000084040
:1053E0000000000000000000000004600000000059
:1053F0000000000004000A00110020804040090065
:105400000900090009000900000000004040208058
:1054100011000A0004001800200023402400180096
:1054200000001F802040274029401F40000000400E
:1054300007C039000F0001C0004020403FC0244099
:1054400024401B8000001F802040204020403080EE
:10545000000020403FC0204020401F80000020402E
:105460003FC024402E4030C0000020403FC02440B8
:105470002E00300000000F001080204022403380BA
:10548000020020403FC0040004003FC020402040F4
:1054900020403FC02040204000000060202020200D
:1054A0003FC02000200020403FC024400B0030C0FF
:1054B000204020403FC020400040004000C03FC08E
:1054C0003C0003C03C003FC0000020403FC00C40F7
:1054D00023003FC020001F802040204020401F802C
:1054E000000020403FC024402400180000001F801E
:1054F0002140214020E01FA0000020403FC0244068
:10550000260019C0004018C02440244022403180A9
:105510000000300020403FC020403000000020004C
:105520003F80004000403F80200020003E0001C03E
:10553000070038002000380007C03C0007C03800D2
:105540000000204039C0060039C020400000200083
:10555000384007C0384020000000304021C02640BD
:10556000384020C00000000000007FE040204020C4
:105570000000000070000C000380004000000000EC
:10558000402040207FE0000000000000200040009C
:10559000200000000000001000100010001000109B
:1055A00000100000000040000000000000000000AB
:1055B00002800540054003C0004020003FC0044079
:1055C00004400380000000000380044004400640C3
:1055D000000000000380044024403FC00040000061
:1055E00003800540054003400000000004401FC048
:1055F000244024402000000002E0055005500650E1
:10560000042020403FC00440040003C000400000CC
:10561000044027C0004000000000001000100410EB
:1056200027E00000000020403FC00140070004C008
:105630000440204020403FC000400040000007C020
:10564000040007C0040003C00000044007C0044079
:10565000040003C0004000000380044004400380B5
:105660000000041007F00450044003800000000014
:1056700003800440045007F00010044007C00240BB
:10568000040004000000000006400540054004C07E
:105690000000000004001F800440004000000400DF
:1056A00007800040044007C000400400070004C019
:1056B000018006000400060001C0070001C00600CA
:1056C0000000044006C0010006C0044000000410B1
:1056D000071004E00180060004000000044005C03B
:1056E0000640044000000000000004007BE0402071
:1056F0000000000000000000FFF0000000000000BB
:1057000040207BE0040000000000400080004000DA
:105710002000200040000000000000000000000009
:105720000000000000000000000000001FCC000C82
:1057300000000000000000000800300060000800C9
:10574000300060000000022003FC1E20022003FC49
:105750001E200220000000000E1811043FFF1084DC
:105760000C78000000000F0010840F3800C007788C
:1057700018840078000000780F8410C411240E985B
:1057800000E40084000808006800700000000000C9
:1057900000000000000000000000000007E01818F2
:1057A000200440020000000040022004181807E016
:1057B0000000000000000240024001800FF0018064
:1057C0000240024000000080008000800FF800804E
:1057D0000080008000000001000D000E00000000AD
:1057E00000000000000000000080008000800080B9
:1057F0000080008000800000000C000C0000000011
:105800000000000000000000000600180060018099
:10581000060018002000000007F00808100410041B
:10582000080807F000000000080408041FFC00043A
:1058300000040000000000000E0C1014102410449E
:1058400011840E0C000000000C1810041104110447
:1058500012880C700000000000E0032004240824DB
:105860001FFC0024000000001F9810841104110484
:10587000108810700000000007F00888110411045F
:1058800018880070000000001C00100010FC1300BD
:105890001C001000000000000E3811441084108419
:1058A00011440E38000000000700088C104410441A
:1058B000088807F00000000000000000030C030C43
:1058C00000000000000000000000000101060000D0
:1058D00000000000000000000080014002200410D1
:1058E00008081004000002200220022002200220EA
:1058F000022002200000000010040808041002200A
:1059000001400080000000000E001200100C106C1E
:1059100010800F00000003E00C1813E4142417C4D7
:10592000082807D000000004003C03C41C400740C6
:1059300000E4001C000410041FFC110411041104F5
:105940000E880070000003E00C181004100410040E
:1059500010081C10000010041FFC10041004100498
:10596000080807F0000010041FFC1104110417C4FC
:1059700010040818000010041FFC1104110017C0C7
:1059800010000800000003E00C181004100410447C
:105990001C780040000010041FFC10840080008070
:1059A00010841FFC10040000100410041FFC1004DD
:1059B00010040000000000030001100110011FFE90
:1059C00010001000000010041FFC11040380146478
:1059D000181C1004000010041FFC10040004000434
:1059E0000004000C000010041FFC1F0000FC1F003E
:1059F0001FFC1004000010041FFC0C04030000E056
:105A000010181FFC100007F0080810041004100400
:105A1000080807F0000010041FFC1084108010809C
:105A200010800F00000007F0081810241024101C2C
:105A3000080A07F2000010041FFC1104110011C035
:105A400011300E0C000400000E1C11041084108490
:105A500010441C3800001800100010041FFC100433
:105A600010001800000010001FF8100400040004CB
:105A700010041FF8100010001E0011E0001C007040
:105A800013801C0010001FC0103C00E01F0000E04D
:105A9000103C1FC000001004180C163401C001C0D7
:105AA0001634180C100410001C00130400FC13041E
:105AB0001C00100000000804101C10641084130463
:105AC0001C04101800000000000000007FFE4002CF
:105AD000400240020000000030000C000380006023
